:020000040800F2
:1000000038050020010100084715000825140008E4
:10001000451500084D0200084917000800000000BF
:100020000000000000000000000000004B15000868
:100030008702000800000000491500084D1500085F
:100040001B0100081B0100081B0100081B01000820
:100050001B0100081B0100081B0100081B01000810
:100060001B0100081B0100081B0100081B01000800
:100070001B0100081B010008510200081B010008B9
:100080001B0100081B0100086D0100081B0100088E
:100090001B0100081B0100081B0100081B010008D0
:1000A0001B0100081B0100081B0100081B010008C0
:1000B0001B0100081B0100081B0100081B010008B0
:1000C0001B0100081B0100081B0100081B010008A0
:1000D0001B0100081B0100081B0100081B01000890
:1000E0001B0100081B0100081B010008DFF80CD0F1
:1000F00000F02AF80048004789170008380500205A
:100100000648804706480047FEE7FEE7FEE7FEE7B1
:10011000FEE7FEE7FEE7FEE7FEE7FEE7C91500089B
:10012000ED000008D2B201E000F8012B491EFBD21D
:1001300070470022F6E710B513460A4604461946F2
:10014000FFF7F0FF204610BD064C074D06E0E068C3
:1001500040F0010394E8070098471034AC42F6D30E
:10016000FFF7C8FF0818000828180008014800F029
:1001700018B900003C00002070B504460068816892
:10018000C943C90717D1816821F00101816000F0DE
:10019000DFFC05460AE000BF00F0DAFC401B022845
:1001A00004D920688068C043C00706D020688068F2
:1001B000C043C007F0D0002070BDA06A40F010001E
:1001C000A062E06A40F00100E062012070BD000022
:1001D000F8B500260446009600688168C943C9073F
:1001E0002DD0816841F001018160164816490068F0
:1001F000B0FBF1F000E0401E00900028FBD100F0C1
:10020000A7FC054616E000BF00F0A2FC401B022838
:1002100010D920688068C043C0070BD0A06A40F0A6
:100220001000A062E06A40F00100E06284F82460FF
:100230000120F8BD20688068C043C007E4D10020D9
:10024000F8BD00002800002040420F00FEE700003B
:10025000014800F043BA0000F400002030B590F8E7
:1002600040500124AC40C56B6C6004686360436817
:10027000102B036803D099600068C26030BD9A609B
:100280000068C16030BD704772B6FEE7704700007D
:10029000F8B50024009490F824202546012A12D0B5
:1002A000012280F824204A681F23072A0DD20668FD
:1002B000776B521E02EB820293409F430B68934080
:1002C0001F43776319E00220F8BD06680D2A0AD2A1
:1002D000376BD21F02EB820293409F430B6893401F
:1002E0001F43376309E0F76A0D3A02EB820293403D
:1002F0009F430B6893401F43F7620A680723066811
:100300000A2A0AD3F7680A3A02EB420293409F4353
:100310008B6893401F43F76008E0376902EB4202A5
:1003200093409F438B6893401F4337610A68102AAC
:1003300001D0112A20D1124B02689A4217D193683A
:100340001B0219D4936843F40003936009681029D1
:1003500012D10C490C4A0968B1FBF2F101EB8101A1
:10036000490000E0491E00910029FBD104E0816AA8
:1003700041F020018162012480F824502046F8BD1C
:10038000002401402800002040420F0010B500F07A
:1003900005F80149088010BD180000200068C06CF5
:1003A000704710B5044600684168890626D5016883
:1003B000890723D5A16AC90603D4A16A41F4007153
:1003C000A1628168C1F34241072910D1217B71B933
:1003D000416821F020014160A06A20F48070A06291
:1003E000A06AC00403D4A06A40F00100A0622046C5
:1003F000FFF7CCFF21686FF01200086020684168A9
:1004000009062ED5016849072BD5A16AC90603D470
:10041000A16A41F40051A1628168C1F30231072948
:1004200009D04168490515D48168C1F342410729C3
:1004300010D1217B71B9416821F080014160A06A2F
:1004400020F48050A062A06AC00503D4A06A40F0E6
:100450000100A0622046FFF719FF21686FF00C0031
:1004600008602068416849060DD50068C0070AD0B9
:10047000A06A40F48030A062204600F093F8216822
:100480006FF00100086010BD2DE9F0414FF000074A
:1004900004003D467ED0A06A002628B9E66284F8B2
:1004A0002460204600F080F82046FFF765FEA16A30
:1004B000C90600D420B1A06A40F01000A06269E033
:1004C000A16A21F4885141F00201A1626268E169E8
:1004D000237B0A4347EA43010A43A1684FF480772C
:1004E000B94209D0012907D05FF0000194F814C087
:1004F000BCF1010F02D00AE03946F7E7F3B1A36A75
:1005000043F02003A362E36A43F00103E36223683C
:10051000D3F804C02CF4694C4CEA010CC3F804C0B5
:1005200021688B68DFF870C003EA0C0313438B600B
:10053000A168B9420BD0012909D00CE0DFF85CC0FA
:10054000A3690CEB43330B4343F40061DFE7218ADB
:100550000D05A5F580152168CB6A23F470032B43A4
:10056000CB62216889680E4B1940914208D1E6623E
:10057000A16A21F0020141F00101A162BDE8F08110
:10058000A06A20F0020040F01000A062E06A40F093
:100590000100E0620120F1E7FDF7E1FF00E0FFFF6D
:1005A000FE0E1FFF7047000000B585B000210091CE
:1005B00001910291039100681249884220D11248AA
:1005C000816941F400718161816901F400710491D4
:1005D000816941F0040181618069694600F004008D
:1005E00004900120009003200190084800F0C0F919
:1005F00000221146122000F017FB122000F006FB2B
:1006000005B000BD00240140001002400008014078
:1006100070B5044690F8240001280DD0012084F81C
:1006200024002046FFF7D4FD02004FF0000005D063
:1006300084F82400104670BD022070BDA16A40F607
:100640000163994341F48071A162224D23682249DC
:10065000AB4218D10E6816F4702F14D0A66A46F477
:100660008016A6620E68760505D5A66A26F40056A1
:1006700046F48056A662A66AF6040AD5E66A26F013
:100680000606E66206E0A66A26F48016A6625E68A2
:10069000E9E7E06284F824006FF002001860206847
:1006A000436843F02003436020688368C3F34243F8
:1006B000072B05D1A84208D1096811F4702F04D086
:1006C000816841F480118160B4E7816841F4A00140
:1006D000F9E7000000280140042401402DE9F05F03
:1006E000C16B0C6801680B68D0F840C0042202FAA4
:1006F0000CF2494DDFF824A1494E4A4FDFF828B1EA
:10070000DFF828E122422CD05A072AD50A6892063F
:1007100003D40A6822F004020A600168A94201D1E8
:10072000042219E0514501D1402215E0B14202D125
:100730004FF4806210E0B94202D14FF480420BE0E6
:10074000594502D14FF4802206E0714502D14FF4A1
:10075000800201E04FF080622F4908394A60C16A87
:100760003BE04FF0020808FA0CF818EA040F4FF0CB
:1007700000094FF0010235D05FEA837832D50B686B
:100780009B0605D40B6823F00A030B6080F8212038
:100790000168A94201D1022219E0514501D120226C
:1007A00015E0B14202D14FF4007210E0B94202D11B
:1007B0004FF400520BE0594502D14FF4003206E0ED
:1007C000714502D14FF4001201E04FF0007212495E
:1007D00008394A6080F82090816A00291AD0BDE863
:1007E000F05F0847082505FA0CF5254212D01B07D3
:1007F00010D50B6823F00E030B6090F84010C36B0C
:1008000002FA01F15960826380F8212080F820907B
:10081000016BE2E7BDE8F09F080002401C000240C7
:100820003000024044000240580002406C00024088
:1008300030B528B308C8134914221944B1FBF2F1AA
:100840008900C16310498163022141771A6843F628
:10085000F0718A43D0E900142143D0E902452C43CA
:10086000214304692143446921438469214311439D
:10087000196000214163012242770177084630BDAB
:10088000012030BDF8FFFDBF0000024070B50446F6
:1008900090F82000002501280CD0012084F82000C9
:1008A00094F821600020012E06D084F82000022553
:1008B000284670BD022070BD022684F82160A06326
:1008C0002068066826F0010606602046FFF7C6FC91
:1008D0002068016841F001010160E9E770B5044654
:1008E00090F82000002501280CD0012084F8200079
:1008F00094F821600020012E06D084F82000022503
:10090000284670BD022070BD022684F82160A063D5
:100910002068066826F0010606602046FFF79EFC68
:10092000E06A00282068016802D041F00E0106E06C
:1009300021F0040101602068016841F00A010160B2
:100940002068016841F001010160D9E770B50446F3
:1009500000F0FEF80546601C02D00448007804440C
:1009600000F0F6F8401BA042FAD370BD1C00002036
:100970002DE9F84FDFF8B891002409F1040A0AF1D3
:10098000040B23460F270BF1040EC9E00125A540F7
:100990002A40AA427DD1674ED1F804C0ACEB0608CC
:1009A000B44532D014DCBCF1030F3AD009DCBCF101
:1009B000000F2AD0BCF1010F1CD0BCF1020F31D1C5
:1009C0001DE0BCF1110F17D0BCF1120F2AD119E0B4
:1009D000B8F5881F19D006DCB8F5803F15D0B8F5FA
:1009E000801F1FD111E0B8F5001F0ED0B8F5041F0D
:1009F00018D10AE0CB6815E0CB681B1D12E0CB686C
:100A000008330FE0CB680C330CE08B682BB1012B63
:100A10004FF0080303D0456104E0042302E00561C0
:100A200000E00023FF2A01D8064601E000F1040699
:100A30004FEA840501D9A5F12005D6F8008007FA10
:100A400005FC28EA0C0803FA05F548EA0508C6F88B
:100A500000804D68ED0062D5374DAE6946F0010665
:100A6000AE61AD6924F0030605F001050095334D34
:100A700006EB050CDCF80850A607360F07FA06F857
:100A800025EA0805DFF8B880404503D14FF000089B
:100A900017E044E0DFF8AC80404502D14FF0010898
:100AA0000FE0DFF8A480404502D14FF0020808E0D3
:100AB000DFF89880404502D14FF0030801E04FF085
:100AC000040808FA06F848EA0508CCF808804D68DA
:100AD000D9F80060ED034D4601D5164300E096437A
:100AE0002E604D68DAF80060AD03554601D5164317
:100AF00000E096432E604D68DBF80060ED025D4635
:100B000001D5164300E096432E604D68DEF8006084
:100B1000AD02754601D5164300E096432E60641C75
:100B20000D682A46E5407FF431AFBDE8F88F00003C
:100B300000040140000011100010024000000140BC
:100B400000080140000C0140001001400014014069
:100B500001488068704700001C000020024881683E
:100B600002781144816070471C000020074810B5CE
:100B7000016841F010010160032000F075F80020C9
:100B800000F006F800F024F8002010BD002002401C
:100B900070B50D4D04464FF47A712878B1FBF0F032
:100BA0000A490968B1FBF0F000F062FB48B9102C6B
:100BB00007D200222146501E00F036F800206C605B
:100BC00070BD012070BD00001C0000202800002026
:100BD0000C4808B5816941F001018161816901F02A
:100BE00001010091C16941F08051C161C06900F00B
:100BF000805000900448416821F0E06141F00071AC
:100C0000416008BD0010024000000140002809DBDF
:100C100000F01F02012191404009800000F1E02016
:100C2000C0F8001170470000F0B40E4B1B680C4672
:100C3000C3F30223C3F10705042D00D90425191DB0
:100C4000072901D2002300E0DB1E012606FA05F188
:100C5000491E214099409E40761E16403143F0BC0B
:100C600000F073BD0CED00E0064900F007020868D3
:100C70004FF6FF03184040EA0220034A1043086081
:100C8000704700000CED00E00000FA052DE9F84384
:100C900005460078354CC00754D0E0690026C000F6
:100CA00008D4E06940F08050E061E069012600F07E
:100CB000805000902E480168C90512D40168804612
:100CC00041F480710160FFF743FF074605E000BF74
:100CD000FFF73EFFC01B642823D8D8F80000C005EA
:100CE000F6D5206A10F4407021D0A98801F4407133
:100CF00081421CD0206A1F49012220F440700A6002
:100D000000220A602062C00711D0FFF721FF0746CA
:100D100041F2883808E000BFFFF71AFFC11B4145C8
:100D200002D90320BDE8F883206A8007F4D5206A41
:100D3000696820F44070084320621EB1E06920F029
:100D40008050E0612878800705D56068A96820F4A4
:100D50004040084360602878C00605D56068E968AF
:100D600020F48000084360600020DBE700100240B0
:100D700000700040400442422DE9F0470F46050054
:100D800061D0434E306800F00700B84209D23068A5
:100D900020F0070038433060306800F00700B842A8
:100DA00051D128683B4C810712D5400703D56068B4
:100DB00040F4E06060602878000703D5606840F484
:100DC000605060606068A96820F0F00008436060CF
:100DD0002878C00728D06868012810D02168022828
:100DE00010D0890700292EDA616821F00301014340
:100DF0006160FFF7ADFE804641F288390DE0216861
:100E00008903EFE78901EDE7FFF7A2FEA0EB0801F8
:100E1000494502D90320BDE8F0876068696800F0A1
:100E20000C00B0EB810FEFD1306800F00700B84242
:100E30000BD9306820F0070038433060306800F08C
:100E40000700B84201D00120E5E72878400705D522
:100E50006068E96820F4E060084360602878000773
:100E600006D56068296920F4605040EAC1006060DE
:100E700000F038F86168084AC1F30311515CC840BA
:100E80000649086006480068FFF782FE0020C2E7B6
:100E90000020024000100240F01700082800002047
:100EA000200000200448054900684968044AC1F34D
:100EB0000221515CC8407047280000200010024009
:100EC000001800080448054900684968044AC1F34D
:100ED000C221515CC8407047280000200010024029
:100EE0000018000812A185B00FC98DE80F0014A0EA
:100EF000144A006804905168134801F00C03042B55
:100F000010D0082B0ED1C1F38343C9031DF8030091
:100F10000AD5516804AAC1F34041515C0A4A5043C2
:100F2000B0FBF1F005B0704708494843FAE700000C
:100F300002030405060708090A0B0C0D0E0F10101A
:100F4000010200000010024000127A0000093D007A
:100F50002DE9F84F040070D02078C04DC00749D06B
:100F60006868C0F38100012807D06868C0F3810079
:100F7000022809D16868C00306D52868800339D5DE
:100F800060680028E7D035E06068B0F5803F0BD09E
:100F900010B1B0F5A02F11D0286820F4803028605F
:100FA000286820F4802002E0286840F4803028601F
:100FB000606890B1FFF7CCFD06460AE0286840F46F
:100FC00080202860F0E700BFFFF7C2FD801B642887
:100FD00073D828688003F7D50CE0FFF7B9FD064603
:100FE00005E000BFFFF7B4FD801B6428F0D8286837
:100FF0008003F7D420789A4E80074FF001094FF014
:10100000000839D5686810F00C0F07D06868C0F385
:101010008100022809D16868C00306D428688007C7
:1010200014D52069012808D110E02069B0B1C6F8B4
:101030000090FFF78DFD074605E00AE1FFF788FD08
:10104000C01B0228C4D828688007F7D528686169C2
:1010500020F0F80040EAC10028600DE0C6F80080EA
:10106000FFF776FD074604E0FFF772FDC01B02287C
:1010700023D828688007F7D4207800072CD5794832
:10108000A169D9B1C0F80090FFF762FD074604E0FE
:10109000FFF75EFDC01B02280FD8686A8007F7D5EE
:1010A00071484FF4FA510068B0FBF1F0009000BFB6
:1010B0000098411E0091FAD20EE080E0C0F8008056
:1010C000FFF746FD074604E0FFF742FDC01B02287C
:1010D00075D8686A8007F7D42078400760D5E8693A
:1010E0000027C00008D4E86940F08050E861E86952
:1010F000012700F0805000905C480168C90513D4B6
:101100000168834641F480710160FFF721FD82464A
:1011100006E000BFFFF71CFDA0EB0A0064284ED8D4
:10112000DBF80000C005F5D5E06801280AD008B159
:10113000052813D0286A20F001002862286A20F0D0
:10114000040002E0286A40F001002862E06841F2F1
:10115000883B98B1FFF7FCFC82460BE0286A40F020
:1011600004002862EEE700BFFFF7F2FCA0EB0A01E3
:1011700059455AD8286A8007F6D50CE0FFF7E8FCF5
:10118000824605E0FFF7E4FCA0EB0A0159454CD884
:10119000286A8007F6D41FB1E86920F08050E86122
:1011A000E06988B36968C1F38101022944D002284B
:1011B000C6F8608004D0FFF7CBFC044638E034E08A
:1011C000FFF7C6FC074604E0FFF7C2FCC01B02287D
:1011D0002BD828688001F7D4206AB0F5803F05D16C
:1011E0006868A16820F4003008436860D4E9080109
:1011F0000843696821F4741108436860C6F8609078
:10120000FFF7A6FC044606E025E000BFFFF7A0FCC0
:10121000001B022809D828688001F7D51BE000BF11
:10122000FFF796FC001B022802D90320BDE8F88FC7
:1012300028688001F4D40EE00128F7D06868226A9B
:1012400000F48031914204D1616A00F47010884248
:1012500001D00120EAE70020E8E70000001002408A
:1012600000004242800442422800002000700040FA
:1012700010B5401EB0F1807F01D3012010BD4FF0AA
:10128000E02460610F21601700F05FFA0020A06188
:1012900007202061002010BD704770B5040004D005
:1012A00094F83D00002510B106E0012070BD84F8DF
:1012B0003C50204600F022F8242084F83D002068AD
:1012C000C16821F40051C160204600F0E1F92068B6
:1012D000016921F4904101612068416921F02A01EE
:1012E00041612068C16841F40051C160256420203B
:1012F00084F83D0084F83E00002070BD70B586B0D3
:1013000000250646009501950295039500681F4942
:10131000884238D11E49886940F4804088618869D4
:1013200000F480400490886940F004008861886976
:10133000184C00F004000490481500900220019021
:101340000320039069462046FFF712FB2015CDE9E4
:101350000005694620460295FFF70AFB0F4C0E4830
:1013600020601020C4E901058020C4E90305202085
:10137000C4E905502046E561FFF75AFA08B1FEF7C7
:1013800083FF7463666206B070BD000000380140E0
:10139000001002400008014044000240F400002018
:1013A00070B5044690F83D00202830D169B362B38F
:1013B00094F83C0001282AD0012084F83C002162E6
:1013C000A284E28400252564212084F83D00636B1B
:1013D00010489862636B1048D862636B0F481863BB
:1013E000606B134645632668606B321DFFF776FA23
:1013F00021686FF04000086084F83C502068416923
:1014000041F080014161002070BD012070BD0220CB
:1014100070BD00001516000843160008CB15000823
:1014200070477047FEE700003EB500241048009466
:10143000019402940D4984600160012505730475CF
:1014400005614FF460214460C161FFF71DF808B1E8
:10145000FEF71AFFCDE90045694605480294FEF7FC
:1014600017FF002801D0FEF70FFF3EBD002401400A
:101470003C000020134808B5416941F00101416179
:101480004069114900F001000090104801604FF4DC
:1014900080414160402181608021C1600021016163
:1014A00041618161C161FFF7C3F908B1FEF7ECFE4C
:1014B000002211460E20FFF7B7FBBDE808400E20C2
:1014C000FFF7A4BB001002401C0002406C0000208B
:1014D0000D4808B5816941F010018161816901F011
:1014E00010010091816941F020018161816901F061
:1014F00020010091816941F004018161806900F05F
:101500000400009008BD0000001002400C4810B517
:101510000A4901604FF4E1314160002181600C22F1
:10152000C160C0E904128161C161FFF7B6FE002805
:1015300003D0BDE81040FEF7A7BE10BD0038014043
:10154000B0000020FEE7FEE770477047FFF706BBDC
:1015500030B593B028216846FEF7EBFD14210AA8A8
:10156000FEF7E7FD002501200F9510951195010468
:1015700012958DE8230004904FF4E010CDE9081097
:10158000022407946846FFF7E3FC08B172B6FEE751
:101590000AA90F2081E831004FF48060CDE90D05E4
:1015A00002210AA8FFF7E8FB08B172B6FEE74FF484
:1015B000004011900F940FA8FFF768FB002801D09E
:1015C00072B6FEE713B030BD704770B5446A20684C
:1015D000406994F83D10C0F3C0100025212904D1C2
:1015E00018B1E584204600F049F82068406994F875
:1015F0003E10C0F38010222904D118B1E5852046A1
:1016000000F024F8206C40F0100020642046FFF722
:1016100043FE70BD10B50146406A09680968890635
:101620000CD40021C18401684A6922F080024A6119
:101630000068C16841F04001C16010BDFFF7F0FED5
:1016400010BD10B5406AFFF7ECFE10BD0168CA6816
:1016500022F49072CA6001684A6922F001024A616C
:10166000016B012904D10168CA6822F01002CA6026
:10167000202180F83E100021016370470168CA688C
:1016800022F0C002CA60202180F83D10704700009F
:1016900070B5044600680169E26821F440511143C5
:1016A00001612169A0680843616908432168CA682B
:1016B00041F20C639A430243CA6020684169A269FF
:1016C00021F44071114341611E492068884202D1D2
:1016D000FFF7F8FB01E0FFF7E5FB00EBC00101EBD2
:1016E0000012606864218000B2FBF0F3B3FBF1F3F9
:1016F0006FF018067343B2FBF0F5B2FBF0F605EBA2
:101700008305322303EB0515B5FBF1F5B6FBF1F6C6
:1017100005F0F00505EB0615B2FBF0F6B2FBF0F0B4
:10172000B0FBF1F06FF01802504306EB800003EBC2
:101730000010B0FBF1F0216800F00F002844886031
:1017400070BD000000380140FEE70907090E0028BF
:1017500004DB00F1E02080F80014704700F00F0077
:1017600000F1E02080F8141D704702E008C8121F45
:1017700008C1002AFAD170477047002001E001C17A
:10178000121F002AFBD17047FFF7F0F9FFF7E0FEC8
:10179000FFF79EFEFFF76EFEFFF7B8FEFFF744FE71
:1017A00010230E4A0E490F48FFF770F80A20FFF782
:1017B000CDF80D48FEF72CFF0949082208390B48DF
:1017C000FFF7EEFD0649083900200A5C521C0A5456
:1017D000401CC0B20828F8D3F6E700002C00002017
:1017E000080000206C0000203C000020B000002019
:1017F00000000000000000000102030406070809C1
:101800000000000001020304281800080000002066
:101810002C0000006A170008541800082C00002053
:101820000C0500007A1700080001020304050607F2
:101830000C17222D384E5A010C17222D384E5A0102
:101840000000000001000000100000000000000087
:041850000024F4007C
:04000005080000ED02
:00000001FF
